S023000045787465726E616C5F496E746572727570745F546573745F4D43552E737265634F
S113000038210020B9140000B5140000B514000014
S113001000000000000000000000000000000000DC
S1130020000000000000000000000000B514000003
S11300300000000000000000B5140000FD150000E1
S1130040B5140000B5140000B5140000B514000088
S1130050DD0D0000B5140000B5140000F90900001E
S1130060090A0000190A0000290A0000390A0000E0
S1130070490A0000B5140000B5140000B5140000CE
S1130080B5140000B5140000B5140000B514000048
S1130090B5140000B5140000B5140000B514000038
S11300A0B514000010B5064C2378002B07D1054B7E
S11300B0002B02D0044800E000BF0123237010BDD0
S11300C014000020000000006C180000084B10B55C
S11300D0002B03D00749084800E000BF0748036825
S11300E0002B00D110BD064B002BFBD09847F9E73D
S11300F000000000180000206C1800006C180000BC
S1130100000000000268138A1BB2002BFBDB70475F
S113011003689A7B920707D502229A731B8A9B076E
S11301204120DB17184070471A8A520706D55968D0
S1130130C02292020A435A601820F4E70020F2E732
S113014030B50268002301240225917B21420BD1A2
S1130150917B294206D101339BB201899942F4D89B
S1130160122002E0002000E0002030BDF0B5DE46A1
S113017057464E464546E0B583B0060089460568B5
S11301804C880B885B0001221343DBB22B75324B86
S1130190984701906B68314A13406B60002807D080
S11301A0019803B03CBC90469946A246AB46F0BDCC
S11301B030002B4B984701900028F1D1013CA4B2A8
S11301C08046284B9A46284B9B4611E03000D8477E
S11301D043465F1CBFB22B7E4A4652684146535485
S11301E030001D4B9847013CA4B2002812D1B846F8
S11301F0544511D02B8A9B062BD5F37A002BE5D0DE
S1130200002CE3D16A688023DB0213436B60013C5A
S1130210A4B2EDE7B8460190B37A002B10D03000B9
S1130220114B98476A68C0239B0213436B603000EC
S11302300D4B98472A7E4B465B6841465A54AFE7BC
S11302403000094B98476A6880235B0213436B6054
S1130250EDE741230193A3E741010000FFFFFBFF0A
S113026011010000FFFF000005010000F0B5DE46AB
S113027057464E464546E0B583B006000F00056874
S11302804C88244B98473B885B00DBB22B753000CD
S1130290214B98470190002807D0019803B03CBC3B
S11302A090469946A246AB46F0BD30001B4B98479A
S11302B0031E0190F1D1A046002420339946154B2A
S11302C09B46154B9A46444514D02B8A4A46134202
S11302D01CD03000D8477B681B5D2B763000D0479C
S11302E0002806D12B8A01345B07ECD51E23019329
S11302F000E00190B37A002BCFD03000054B984733
S11303006A68C0239B0213436B60C6E741230193D1
S1130310C3E7C046050100004101000011010000CF
S1130320F0B5CE46474680B583B007000D001600F1
S113033039600800524B9847524A116A841C0123C1
S1130340A3400B43136201A933790B700D30C4B27F
S113035020004D4B984720004C4B984730790021A2
S11303604B4B98472B681C209B0704D503B00CBC4F
S113037090469946F0BD2B681738DB07F6D43868E9
S11303803F4B9846984704004249434B9847A40082
S1130390424BE75000233B767B76002291467B83D9
S11303A0BB8325224946B9543B6214332B603C6815
S11303B02000C047804680236A4613706B464A4635
S11303C05A7001236A4693706B464A46DA70706924
S11303D0B569002848D06B46187002236A465370EA
S11303E0000CC0B269462E4B9847002D41D06B4695
S11303F01D7002236A465370280CC0B26946284B0C
S11304009847B389FB80F3893B81327C8023002A9F
S113041004D1244B9B789B07DB0FDB01B2681343A9
S1130420327F002A02D08022D20513432268316A27
S11304300A431343236080235B00636045460D3504
S1130440E8B2194B98473368FA21C90059434B1E47
S11304501818164B9847431F4020FF2B00D985E7F7
S1130460DBB26381002081E700212000104B984714
S1130470B1E7012120000E4B98470500B7E7C046BD
S113048051090000000400405D130000D112000077
S11304908D070000BD0500008D0900006C000020E0
S11304A05514000000200041791300009516000047
S11304B0D907000010B5838B9BB20522002B01D015
S11304C0100010BD01338372C372024B98470200BF
S11304D0F6E7C0466D01000010B5838B9BB2052280
S11304E0002B01D0100010BD01338372C372024B84
S11304F098470200F6E7C0466D0200000268138ABE
S11305001BB2002BFBDB704770B504000668458BFB
S1130510838BED1AADB2838B013B9BB28383838BB8
S11305209BB2002B1CD1C37A002B04D072688023A9
S1130530DB0213437360A37A002B08D020000F4B17
S113054098477268C0239B02134373600CE0200039
S11305500A4B9847726880235B021343736003E07D
S11305607368074A134073602000044B9847236A5A
S11305705D19337EDBB22B7070BDC046FD040000F4
S1130580FFFFFBFF70B5040005682B8A5B0703D5EA
S11305901E222523C25470BD468B838BF61AB6B235
S11305A0838B013B9BB28383034B9847236A9E1939
S11305B03378DBB22B76EEE7FD04000070B58000E3
S11305C06E4BC4582668637E257E1D40638B9BB2A8
S11305D0002B03D1A38B9BB2002B41D1638B9BB225
S11305E0002B08D0A38B9BB2002B04D12533E35CF2
S11305F0052B00D166E0638B9BB2002B0AD0A38B42
S11306009BB2002B06D0338A9B0600D57BE04122A7
S11306102523E254638B9BB2002B08D0A38B9BB29F
S1130620002B04D12533E35C052B00D177E025238F
S1130630E35C052B13D02523E35C002B0FD00323AD
S1130640337300236383A3832533E35C412B03D0FB
S1130650A37A002B00D084E06B0700D58AE070BD3C
S1130660B37BDB0707D50123B373338A9B0702D51A
S113067041222523E254338A5B0707D51822252318
S1130680E2540023A383A37A002B0ED1A38B9BB245
S113069063832523E35C052BBCD11F33E35C002B70
S11306A00CD02000364B9847B4E72000354B9847D0
S11306B07268C0239B0213437360E7E72000324B48
S11306C09847A7E71F33E35C002B00D093E703337D
S11306D033730023638325330022E254A37A002B6F
S11306E008D10123B373EB0700D493E7E368200038
S11306F098478FE72000234B98477268C0239B02DA
S113070013437360EFE72423E35C002B03D1200041
S11307101D4B98477EE72000194B98477AE71F3313
S1130720E35C012B00D082E702333373002363833D
S113073025330022E254AB0703D52423E35C012BC9
S11307400BD0EB0700D472E72423E35C002B00D02A
S11307506DE7E3682000984769E72369200098471C
S113076065E72000074B98477268E023DB021343D8
S1130770736071E763692000984770E76C0000209C
S113078009050000FD0400008505000010B582B0D5
S113079004000E4B1B78002B07D0002905D10B4B0E
S11307A05B78834210D01D200CE001A90C700C2052
S11307B0074B98470C20074B9847044B5C70012269
S11307C01A70002002B010BD0020FBE730000020AA
S11307D05D130000D1120000404B984231D00AD979
S11307E03F4B98424DD03F4B98425AD03E4B984293
S11307F037D0002070473D4B98420CD03C4B984278
S1130800F7D1012917D000295DD0022915D0032979
S113081015D00020EEE7012907D0002951D0022984
S113082005D0032905D00020E4E73248E2E7324846
S1130830E0E73248DEE73248DCE73248DAE73248BC
S1130840D8E7012907D000293FD0022905D0032980
S113085005D00020CEE72D48CCE72D48CAE72D4827
S1130860C8E7012907D0002931D0022905D003297E
S113087005D00020BEE72848BCE72848BAE7284846
S1130880B8E7012907D0002923D0022905D003297C
S113089005D00020AEE72348ACE72348AAE7234865
S11308A0A8E7012907D0002915D0022905D003297A
S11308B005D000209EE71E489CE71E489AE71E4884
S11308C098E71E4896E7032094E71D4892E71D48E1
S11308D090E71D488EE71D488CE7C0460010004293
S11308E000180042001C00420014004200080042AC
S11308F0000C00420300050003000600030007008B
S11309000300010003001E0003001F000300090090
S113091003000A0003000B0003001100030012008F
S11309200300130003000D0003000E0003000F007A
S1130930030017000300180003001900030004005B
S1130940030008000300100003000C00030016005D
S113095030B587B00B4B6A4632CB32C232CB32C28F
S1130960009B83420BD001239A006946525882426D
S113097006D00133062BF7D1002007B030BD002389
S1130980D8B2FAE7F417000070470000F0B50A4B3C
S11309901B78002B0CD1094F094E0A4D0024DE515F
S11309A05A1914600433182BF9D10122024B1A701E
S11309B08000024BC150F0BD320000203400002002
S11309C0890900006C00002000B583B007236A4643
S11309D0137001335370013393700133D3700133B7
S11309E0137101335371034B98476B46185603B088
S11309F000BDC0465109000010B5024B1B68002021
S1130A00984710BD3400002010B5024B5B680120EC
S1130A10984710BD3400002010B5024B9B6802209B
S1130A20984710BD3400002010B5024BDB6803204A
S1130A30984710BD3400002010B5024B1B690420F8
S1130A40984710BD3400002010B5024B5B690520A7
S1130A50984710BD3400002070B51D4A642313600C
S1130A600023137113748021890391600121494289
S1130A70918113771362D7339384164BD381164B2A
S1130A805361164B9361164C16492000164B984738
S1130A902468238A1BB2002BFBDB23680222134346
S1130AA023600F4D2868114B98471F2318401E3BA5
S1130AB083400F4A1360E88800231021228A0A42E7
S1130AC004D101338342F9D31023238270BDC0467D
S1130AD0CC000020102700000300080003000900D8
S1130AE0A40000200010004221030000C9090000F6
S1130AF000E100E0F8B500AF1C000834E408E400AD
S1130B006D462C1BA5466E4631709BB2002B07D058
S1130B1000217418555C657001318CB29C42F8D385
S1130B200D4A10805660013353800C4B00221A7218
S1130B305A72094D0A4C0B4E29002000B047002878
S1130B4007D0094A1388591C11800A2BF4D10120BB
S1130B504042BD46F8BDC0468400002090000020FD
S1130B60A4000020D90400004C000020F0B583B09C
S1130B70170000936B46DA1DD971184B18805A6020
S1130B8001225A8000221A725A721D00144C154E0A
S1130B9029002000B047002809D0134A1388591CA3
S1130BA011800A2BF4D10120404203B0F0BD0B4B5D
S1130BB05F606A4612885A801D00094C0B4E29005A
S1130BC02000B0470028F0D0074A1388591C118030
S1130BD00A2BF4D101204042E7E7C04690000020F0
S1130BE0A4000020D90400004C000020B50400003B
S1130BF070B50020084B98470500084CFA2189007D
S1130C00A047074B186007492800A047064B186007
S1130C100522064B1A6070BD4512000095160000AF
S1130C200000002040420F000400002010E000E01B
S1130C3030B5084B1C68084A002580214902013858
S1130C4007D3002CFBD05460956013680B42FCD092
S1130C50F5E730BD0000002010E000E0044A1378FE
S1130C6002210B43137053785BB2002BFBDB7047FC
S1130C700018004000B583B0124A936940210B4329
S1130C80936101A900230B7003200F4B98470320A5
S1130C900E4B98470E4A137801210B431370537877
S1130CA05BB2002BFBDB0B4B19004031002204C369
S1130CB09942FCD11022084B1A60084B984703B0A4
S1130CC000BDC046000400405D130000D1120000C6
S1130CD000180040F400002000E100E05D0C00007A
S1130CE00023036043600122027242728372023362
S1130CF0C3727047F0B583B005000C0001A900234E
S1130D004B70CB7023790B70237A8B702078154B42
S1130D10984700201F2D00D8134807222A4092002C
S1130D20E77AA37A002B01D008231F43EB089B002A
S1130D30C31899690F269640B14397403A000A4375
S1130D409A61637A002B06D143690122AA40934336
S1130D50436103B0F0BD42690123AB4013434361D7
S1130D60F7E7C046551400000018004000B583B0F2
S1130D7001AB80221A700A785A704A789A708A787D
S1130D80DA701900014B984703B000BD55140000F8
S1130D901723002A01D0180070478B00064A9B587D
S1130DA0002B03D0834205D01D23F4E7890088502B
S1130DB00023F0E70023EEE7F400002017230029C6
S1130DC001D01800704700221F2800D8024A0123CE
S1130DD08340D3600023F4E70018004070B500227C
S1130DE0104B1A70002310491F25104E0D4C0AE0B9
S1130DF00D4908E023780133DBB223700F2B10D8A0
S1130E0000211F2BF4D928001840012282400869D0
S1130E101042EFD00A619B009B59002BEAD09847FF
S1130E20E8E770BD3401002000180040F400002001
S1130E3000B583B001A901234B7000228A700B70A6
S1130E400E20044B98478022D201034B9A6103B0D1
S1130E5000BDC0466D0D00000044004100B583B0E4
S1130E6001A900230B7001224A708B700F20024BE2
S1130E70984703B000BDC0466D0D000010B50020BA
S1130E800D4B984701380D4B98420DD80C4A5060D1
S1130E900C48036A1B021B0AC02109060B430362A8
S1130EA00023936007331360074B9847074B984719
S1130EB0074B984710BDC04645120000FFFFFF00D6
S1130EC010E000E000ED00E0F10B0000310E000046
S1130ED05D0E00000C4B1B68002B06D1EFF3108352
S1130EE0002B07D00022094B1A70074A13680133FC
S1130EF01360704772B6BFF35F8F0022044B1A7001
S1130F000132024B1A70F0E7500000205400002018
S1130F1008000020084B1A68013A1A601B68002B6D
S1130F2009D1064B1B78002B05D00122044B1A7003
S1130F30BFF35F8F62B6704750000020540000205A
S1130F400800002010B5072803D88000164B1B5852
S1130F509F46002027E0154BD86824E0144B1B6AF9
S1130F609B059B0F1348D8401DE0104B18691AE0ED
S1130F700E4B1B6800209B0715D50D491022CB682A
S1130F801A42FCD0094B1B685B0701D40A480AE0EB
S1130F9000200A4B9847054B9B681B041B0C5843C5
S1130FA001E08020000210BD0C1800005800002051
S1130FB00008004000127A00006CDC027913000083
S1130FC070B50C490B6A047885784078012210408A
S1130FD080014026B34303432A40D2018020834347
S1130FE013430322224012020348034013430B62BB
S1130FF070BDC04600080040FFFCFFFF072803D86F
S113100080001E4B1B589F46172036E01C4A136A6B
S113101002210B43136200202FE0194A9369022135
S11310200B439361002028E0154A138A02210B43E5
S11310301382002021E0124A938A02210B439382F7
S113104000201AE00F4B1A6802210A431A601B6839
S11310500D4A13400A4A938411001022CB681A42A5
S1131060FCD0084A9168064BD962516899621268AB
S113107092B29A84002000E0002070472C180000EF
S113108000080040580000207FFF000030B585B004
S1131090C222D2001A4B9A601A4A53681E218B430B
S11310A0536001236A4613700024174DE0B2694669
S11310B0A84701341C2CF9D103A80024447001254D
S11310C085700470114B98470620114B9847114BBB
S11310D09847114B1C725C729C72DC7201956B46D2
S11310E05C7006236A4613701472547269460020B9
S11310F00A4B984700200A4B984705B030BDC046BC
S113110000080040004000415D130000C10F0000D2
S1131110FD0F0000251100000004004049110000EB
S113112001120000064A936908210B4393610122CE
S1131130044B1A7019000B781342FCD17047C04657
S113114000040040000C004070B5060004000D7857
S11311502D0205434B78002B02D08023DB021D4374
S11311604B7A002B02D080231B031D4348680128BF
S113117010D9431E184234D1022830D90223002248
S113118001325B009842FBD81202324314008023E0
S11311905B031D430B7A002B02D080239B031D436A
S11311A0134A53785BB2002BFBDB124B9847124B6C
S11311B01E700F4A53785BB2002BFBDB0C4B9C6018
S11311C01A0053785BB2002BFBDB094A5368802179
S11311D049020B401D435560084B984770BD0022DF
S11311E0D2E70402344380239B021D43D2E7C04666
S11311F0000C0040D50E0000080C0040150F000044
S113120010B504000B4A53785BB2002BFBDB0A4B8E
S113121098470A4B1C70074A53785BB2002BFBDBE0
S1131220044A516880235B020B435360044B984784
S113123010BDC046000C0040D50E0000040C004058
S1131240150F000070B504001A4A53785BB2002BE6
S1131250FBDB194B9847194B1C70164A53785BB249
S1131260002BFBDB134E7068C004C00E144B984770
S11312700500124B1C707668F602F60F114B1C70B9
S11312800C4A53785BB2002BFBDB0A4B9C682402AC
S1131290240C0D4B9847002E07D1012C07D92100AF
S11312A028000A4B9847050001E00134E540280076
S11312B070BDC046000C0040D50E0000040C004078
S11312C0450F0000080C0040150F000095160000A3
S11312D010B50400064B9847064B1C70064A538809
S11312E08021C9010B435380044B984710BDC0466D
S11312F0D50E0000020C0040000C0040150F000049
S113130010B504000F4B98470F4B1C700F4A5388BD
S11313101B05180F53880E490B40538053880D4901
S11313200B40538011008022D2014B881342FCD120
S113133006494A8803020648024013434B80064B81
S1131340984710BDD50E0000020C0040000C004070
S1131350FFF0FFFFFFBFFFFF150F000010B50C7873
S113136024020443024B9847A4B2024B5C8010BD94
S113137001130000000C004010B50400064B984710
S1131380064B1C70064B5C882405240F054B9847BC
S11313902000054B984710BDD50E0000020C0040FC
S11313A0000C0040150F00004512000030B5D37842
S11313B0002B35D11378802B29D01B06802464029E
S11313C0234354780225AC4306D19478002C20D1D1
S11313D08024A402234341605478013C012C1CD98D
S11313E00D042D0CA024E4052C431C4384620D0C35
S11313F0D02424062C431C438462D478002C22D1AC
S11314005B031CD59378012B1ED0416117E00023A8
S1131410D7E7C024E4022343DDE70D4C2340DFE794
S113142041600C04240CA023DB05234383620C0CD1
S1131430D0231B0623438362D378002B03D1537834
S1131440013B012B02D930BD8161F8E78160FAE7E5
S1131450FFFFFBFF10B50A00C1090023002904D1D6
S11314604309DB0105498C4663441F2420400121C4
S113147081401800024B984710BDC046004400410B
S1131480AD1300007047000010B5054B9847054B9D
S11314909847054B9847054B9847054B984710BD0F
S11314A08D1000007D0E000085140000750C0000F6
S11314B085140000FEE7000010B51A4A1A4B9A4240
S11314C011D01A00194B9A420DD2194A03339B1AB0
S11314D09B0801339B000022134812498C58845006
S11314E004329A42FAD1134A134B9A420AD2D34392
S11314F011495B1803218B4304339B18002102C25A
S11315009342FCD10D4AFF210D4B8B4393600D4A4E
S113151053687F390B4353600B4B98470B4B9847E9
S1131520FEE7C0466C1800000000002014000020F4
S113153004000020140000203801002000ED00E029
S11315400000000000400041AD17000041160000FB
S1131550F8B5134B1B6A1B0417D58022D201104B1C
S11315609A6105240E4F8026F6010E4DFE6164201B
S1131570A847013C002CF9D1094B1B6A1B0409D470
S11315808022D201064B5A61F8BD8022D201044B5D
S11315905A61E6E78022D201014B9A61F4E7C04622
S11315A000440041310C000010B584B001AC2000AF
S11315B0074B98470F230193002363600133237281
S11315C00233E37221000F20024B984704B010BD90
S11315D0E10C0000F50C000010B500220F210448B6
S11315E0044B984700210F20034B984710BDC04679
S11315F051150000910D0000BD0D00007047000062
S113160010B5064B9847064B98470122054B1A70B4
S1131610BFF35F8F62B6044B984710BDA915000055
S1131620D915000008000020590A000010B5020076
S1131630022306211820014CA04710BD6D0B0000A9
S1131640F8B50B4B98470B4B98470B4D0B4F0C4E73
S11316503978307801232A000A4CA04764200A4CC8
S1131660A0470A480A4B98476420A047F0E7C046C1
S11316708914000001160000100000200900002059
S11316800E000020F50A0000310C00000C000020C0
S11316902D160000002243088B4274D303098B42A9
S11316A05FD3030A8B4244D3030B8B4228D3030C2E
S11316B08B420DD3FF22090212BA030C8B4202D3D0
S11316C01212090265D0030B8B4219D300E0090AF8
S11316D0C30B8B4201D3CB03C01A5241830B8B4201
S11316E001D38B03C01A5241430B8B4201D34B03EA
S11316F0C01A5241030B8B4201D30B03C01A52414F
S1131700C30A8B4201D3CB02C01A5241830A8B42D3
S113171001D38B02C01A5241430A8B4201D34B02BC
S1131720C01A5241030A8B4201D30B02C01A524120
S1131730CDD2C3098B4201D3CB01C01A52418309D4
S11317408B4201D38B01C01A524143098B4201D30E
S11317504B01C01A524103098B4201D30B01C01A39
S11317605241C3088B4201D3CB00C01A52418308B3
S11317708B4201D38B00C01A524143088B4201D3E0
S11317804B00C01A5241411A00D201465241104640
S11317907047FFE701B5002000F006F802BDC0461F
S11317A00029F7D076E770477047C04670B5002629
S11317B00C4D0D4C641BA410A64209D1002600F068
S11317C045F80A4D0A4C641BA410A64205D170BD0D
S11317D0B300EB5898470136EEE7B300EB5898474F
S11317E00136F2E758180000581800005818000095
S11317F05C18000000080042000C00420010004287
S11318000014004200180042001C0042560F000061
S1131810520F0000520F0000A20F0000A20F0000A0
S11318206A0F00005C0F0000700F00002810000019
S11318300810000008100000781000001A100000C2
S1131840361000000C10000044100000F8B5C0462B
S1131850F8BC08BC9E467047CD000000F8B5C046F1
S10F1860F8BC08BC9E467047A5000000C0
S113186C401F00000800000001010000AA0018003D
S107187CE000000084
S90314B92F
