S023000045787465726E616C5F496E746572727570745F546573745F4D43552E737265634F
S113000088200020610900005D0900005D090000EE
S113001000000000000000000000000000000000DC
S11300200000000000000000000000005D09000066
S113003000000000000000005D090000D10A00007B
S11300405D0900005D0900005D0900005D09000014
S1130050F10200005D0900005D0900005D09000077
S11300605D0900005D0900005D0900005D090000F4
S11300705D0900005D0900005D0900005D090000E4
S11300805D0900005D0900005D0900005D090000D4
S11300905D0900005D0900005D0900005D090000C4
S11300A05D09000010B5064C2378002B07D1054BE1
S11300B0002B02D0044800E000BF0123237010BDD0
S11300C00C00002000000000180D0000084B10B5C3
S11300D0002B03D00749084800E000BF0748036825
S11300E0002B00D110BD064B002BFBD09847F9E73D
S11300F00000000010000020180D0000180D000082
S11301000000000070B50020084B98470500084C1B
S1130110FA218900A047074B186007492800A04727
S1130120064B18600522064B1A6070BDED060000F0
S1130130590B00000000002040420F000400002082
S113014010E000E030B5084B1C68084A0025802107
S11301504902013807D3002CFBD054609560136822
S11301600B42FCD0F5E730BD0000002010E000E0B9
S1130170044A137802210B43137053785BB2002BAB
S1130180FBDB70470018004000B583B0124A936946
S113019040210B43936101A900230B7003200F4BF3
S11301A0984703200E4B98470E4A137801210B43BE
S11301B0137053785BB2002BFBDB0B4B19004031FF
S11301C0002204C39942FCD11022084B1A60084B48
S11301D0984703B000BDC046000400400508000075
S11301E079070000001800404400002000E100E00E
S11301F07101000000230360436001220272427215
S113020083720233C3727047F0B583B005000C00EB
S113021001A900234B70CB7023790B70237A8B7068
S11302202078154B984700201F2D00D8134807222B
S11302302A409200E77AA37A002B01D008231F43B7
S1130240EB089B00C31899690F269640B143974069
S11302503A000A439A61637A002B06D1436901226A
S1130260AA409343436103B0F0BD42690123AB400C
S113027013434361F7E7C046FD080000001800403F
S113028000B583B001AB80221A700A785A704A789C
S11302909A708A78DA701900014B984703B000BD50
S11302A0FD0800001723002A01D0180070478B00B6
S11302B0064A9B58002B03D0834205D01D23F4E744
S11302C0890088500023F0E70023EEE74400002073
S11302D01723002901D01800704700221F2800D8D6
S11302E0024A01238340D3600023F4E7001800404E
S11302F070B50022104B1A70002310491F25104EB0
S11303000D4C0AE00D4908E023780133DBB2237079
S11303100F2B10D800211F2BF4D9280018400122DC
S1130320824008691042EFD00A619B009B59002B60
S1130330EAD09847E8E770BD840000200018004028
S113034044000020F0B583B001AC0125657000279E
S1130350A770257021000E20064EB0478022D201DE
S1130360054B9A612770657021000F20B04703B0D8
S1130370F0BDC04681020000004400410C4B1B68E4
S1130380002B06D1EFF31083002B07D00022094B7A
S11303901A70074A136801331360704772B6BFF3CB
S11303A05F8F0022044B1A700132024B1A70F0E77F
S11303B0280000202C00002008000020084B1A68A8
S11303C0013A1A601B68002B09D1064B1B78002BDD
S11303D005D00122044B1A70BFF35F8F62B67047D9
S11303E0280000202C0000200800002010B5072859
S11303F003D88000164B1B589F46002027E0154B5E
S1130400D86824E0144B1B6A9B059B0F1348D84003
S11304101DE0104B18691AE00E4B1B6800209B0767
S113042015D50D491022CB681A42FCD0094B1B6824
S11304305B0701D40A480AE000200A4B9847054BA1
S11304409B681B041B0C584301E08020000210BD74
S1130450B80C0000300000200008004000127A00B0
S1130460006CDC022108000070B50C490B6A0478AA
S1130470857840780122104080014026B34303432D
S11304802A40D201802083431343032222401202D4
S11304900348034013430B6270BDC046000800408C
S11304A0FFFCFFFF072803D880001E4B1B589F4604
S11304B0172036E01C4A136A02210B431362002002
S11304C02FE0194A936902210B439361002028E02D
S11304D0154A138A02210B431382002021E0124A99
S11304E0938A02210B43938200201AE00F4B1A686F
S11304F002210A431A601B680D4A13400A4A938476
S113050011001022CB681A42FCD0084A9168064BAD
S1130510D96251689962126892B29A84002000E00C
S113052000207047D80C0000000800403000002074
S11305307FFF000030B585B0C222D2001A4B9A600A
S11305401A4A53681E218B43536001236A46137071
S11305500024174DE0B26946A84701341C2CF9D198
S113056003A800244470012585700470114B98473A
S11305700620114B9847114B9847114B1C725C7223
S11305809C72DC7201956B465C7006236A4613709C
S113059014725472694600200A4B984700200A4B93
S11305A0984705B030BDC0460008004000400041F7
S11305B00508000069040000A5040000CD05000042
S11305C000040040F1050000A9060000064A9369F2
S11305D008210B4393610122044B1A7019000B7814
S11305E01342FCD17047C04600040040000C004098
S11305F070B5060004000D782D0205434B78002BDE
S113060002D08023DB021D434B7A002B02D08023CF
S11306101B031D434868012810D9431E184234D1D6
S1130620022830D90223002201325B009842FBD811
S113063012023243140080235B031D430B7A002B08
S113064002D080239B031D43134A53785BB2002BD3
S1130650FBDB124B9847124B1E700F4A53785BB268
S1130660002BFBDB0C4B9C601A0053785BB2002B15
S1130670FBDB094A5368802149020B401D43556046
S1130680084B984770BD0022D2E70402344380230C
S11306909B021D43D2E7C046000C00407D030000CE
S11306A0080C0040BD03000010B504000B4A537849
S11306B05BB2002BFBDB0A4B98470A4B1C70074AC2
S11306C053785BB2002BFBDB044A516880235B0246
S11306D00B435360044B984710BDC046000C0040C8
S11306E07D030000040C0040BD03000070B504004D
S11306F01A4A53785BB2002BFBDB194B9847194B12
S11307001C70164A53785BB2002BFBDB134E7068E7
S1130710C004C00E144B98470500124B1C70766839
S1130720F602F60F114B1C700C4A53785BB2002B87
S1130730FBDB0A4B9C682402240C0D4B9847002ECB
S113074007D1012C07D9210028000A4B984705003E
S113075001E00134E540280070BDC046000C0040B3
S11307607D030000040C0040ED030000080C004071
S1130770BD030000590B000010B50400064B984758
S1130780064B1C70064A53888021C9010B435380D1
S1130790044B984710BDC0467D030000020C004086
S11307A0000C0040BD03000010B504000F4B984737
S11307B00F4B1C700F4A53881B05180F53880E49A2
S11307C00B40538053880D490B4053801100802205
S11307D0D2014B881342FCD106494A8803020648D9
S11307E0024013434B80064B984710BD7D03000025
S11307F0020C0040000C0040FFF0FFFFFFBFFFFFB2
S1130800BD03000010B50C7824020443024B984742
S1130810A4B2024B5C8010BDA9070000000C00408C
S113082010B50400064B9847064B1C70064B5C88B9
S11308302405240F054B98472000054B984710BD0D
S11308407D030000020C0040000C0040BD030000CA
S1130850ED06000030B5D378002B35D11378802B0A
S113086029D01B0680246402234354780225AC4318
S113087006D19478002C20D18024A4022343416023
S11308805478013C012C1CD90D042D0CA024E40542
S11308902C431C4384620D0CD02424062C431C439B
S11308A08462D478002C22D15B031CD59378012B6D
S11308B01ED0416117E00023D7E7C024E40223439C
S11308C0DDE70D4C2340DFE741600C04240CA0233A
S11308D0DB05234383620C0CD0231B062343836272
S11308E0D378002B03D15378013B012B02D930BDBF
S11308F08161F8E78160FAE7FFFFFBFF10B50A00AA
S1130900C1090023002904D14309DB0105498C46B0
S113091063441F242040012181401800024B984762
S113092010BDC04600440041550800007047000057
S113093010B5054B9847054B9847054B9847054B11
S11309409847054B984710BD350500004503000046
S11309502D090000890100002D090000FEE70000B8
S113096010B51A4A1A4B9A4211D01A00194B9A42DE
S11309700DD2194A03339B1A9B0801339B000022B2
S1130980134812498C58845004329A42FAD1134ABB
S1130990134B9A420AD2D34311495B1803218B4368
S11309A004339B18002102C29342FCD10D4AFF215B
S11309B00D4B8B4393600D4A53687F390B4353604F
S11309C00B4B98470B4B9847FEE7C046180D0000A9
S11309D0000000200C000020040000200C00002077
S11309E08800002000ED00E000000000004000410D
S11309F0710C0000450B0000F8B5134B1B6A1B0477
S1130A0017D58022D201104B9A6105240E4F8026FF
S1130A10F6010E4DFE616420A847013C002CF9D17B
S1130A20094B1B6A1B0409D48022D201064B5A616C
S1130A30F8BD8022D201044B5A61E6E78022D2013C
S1130A40014B9A61F4E7C0460044004145010000AF
S1130A5000B583B001A901234B7000228A700B708A
S1130A600E20044B98478022D201034B9A6103B0B5
S1130A7000BDC046810200000044004110B584B0AE
S1130A8001AC2000074B98470F23019300236360B8
S1130A90013323720233E37221000F20024B984783
S1130AA004B010BDF50100000902000010B50022D9
S1130AB00F210448044B984700210F20034B98470B
S1130AC010BDC046F9090000A5020000D1020000D3
S1130AD07047000010B50020114B98470138114BA6
S1130AE098420DD8104A50601048036A1B021B0A32
S1130AF0C02109060B43036200239360073313608C
S1130B000B4B98470B4B98470B4B98470B4B98470D
S1130B1001220B4B1A70BFF35F8F62B610BDC04643
S1130B20ED060000FFFFFF0010E000E000ED00E034
S1130B3005010000510A00007D0A0000AD0A000012
S1130B400800002010B5024B9847024B9847FEE777
S1130B5031090000D50A0000002243088B4274D3F7
S1130B6003098B425FD3030A8B4244D3030B8B42AA
S1130B7028D3030C8B420DD3FF22090212BA030CB3
S1130B808B4202D31212090265D0030B8B4219D394
S1130B9000E0090AC30B8B4201D3CB03C01A5241B4
S1130BA0830B8B4201D38B03C01A5241430B8B42FC
S1130BB001D34B03C01A5241030B8B4201D30B03E5
S1130BC0C01A5241C30A8B4201D3CB02C01A52410C
S1130BD0830A8B4201D38B02C01A5241430A8B42CF
S1130BE001D34B02C01A5241030A8B4201D30B02B8
S1130BF0C01A5241CDD2C3098B4201D3CB01C01AD2
S1130C00524183098B4201D38B01C01A52414309DB
S1130C108B4201D34B01C01A524103098B4201D3C9
S1130C200B01C01A5241C3088B4201D3CB00C01A36
S1130C30524183088B4201D38B00C01A52414308AE
S1130C408B4201D34B00C01A5241411A00D20146D3
S1130C50524110467047FFE701B5002000F006F846
S1130C6002BDC0460029F7D076E770477047C046FA
S1130C7070B500260C4D0D4C641BA410A64209D17E
S1130C80002600F039F80A4D0A4C641BA410A64251
S1130C9005D170BDB300EB5898470136EEE7B300B9
S1130CA0EB5898470136F2E7040D0000040D0000EC
S1130CB0040D0000080D0000FE030000FA0300000C
S1130CC0FA0300004A0400004A0400001204000071
S1130CD00404000018040000D0040000B004000064
S1130CE0B004000020050000C2040000DE0400007F
S1130CF0B4040000EC040000F8B5C046F8BC08BC1D
S1130D009E467047CD000000F8B5C046F8BC08BC4C
S10B0D109E467047A500000097
S10F0D18401F0000080000000100000063
S903096192
