:1000000040210020C1120000BD120000BD120000FE
:1000100000000000000000000000000000000000E0
:10002000000000000000000000000000BD12000001
:100030000000000000000000BD120000CD13000011
:10004000BD120000BD120000BD120000BD12000074
:10005000690C0000BD120000BD120000D5080000B0
:10006000E5080000F508000005090000150900007A
:1000700025090000BD120000BD120000BD120000E5
:10008000BD120000BD120000BD120000BD12000034
:10009000BD120000BD120000BD120000BD12000024
:1000A000BD12000010B5064C2378002B07D1054B7C
:1000B000002B02D0044800E000BF0123237010BDD4
:1000C0000C00002000000000D8150000084B10B5FF
:1000D000002B03D00749084800E000BF0748036829
:1000E000002B00D110BD064B002BFBD09847F9E741
:1000F0000000000010000020D8150000D8150000F6
:10010000000000000268138A1BB2002BFBDB704763
:1001100002220368997B114206D09A731B8A412000
:1001200013420AD1002008E01A8A5207FAD5C022E9
:100130001820596892020A435A60704770B500222D
:100140000126022401688B7B334002D18D7B25423E
:1001500001D0002005E00132038992B29342F2D827
:10016000122070BD0123F0B50A88056852001343C0
:1001700085B00191DBB24C882B752A4B060098475D
:100180006B68294A13406B60002804D13000274B6C
:100190009847071E13D005B0F0BD20222B8A1342CA
:1001A0003DD0F37A002B11D0029B002B0ED1802280
:1001B0006B68D20213436B600097009F029C631E22
:1001C0009BB20293002CE8D100970FE03000184B4F
:1001D00098477B1C9BB2019A00932B7E526830009B
:1001E000D355104B03929847041EE6D0B37A104FB4
:1001F0003000002B0ED0B847C0236A689B0213431F
:100200006B603000B847019B2A7E5B680099200034
:100210005A54C0E7B84780236A685B02EFE7412081
:10022000B9E7C0463D010000FFFFFBFF11010000E0
:1002300005010000F7B50F0005004B880668019323
:100240001E4B98473B8828005B00DBB233751C4B84
:100250009847041E15D128001A4B9847041E10D148
:100260000090009B019A93420DD10024AB7A002BA1
:1002700007D0124B28009847C02372689B02134393
:1002800073602000FEBD2022338A134214D0280060
:100290000A4B98477B68009A28009B5C3376084B92
:1002A0009847041EE2D1009A338A01320092042258
:1002B0001342D6D01E24D9E74124E2E7050100000D
:1002C0003D01000011010000F0B5060085B031606D
:1002D00008004E4B14000F0098470125831C9D40D9
:1002E0002B004B4A0D30116AC5B20B4313622379C0
:1002F00002AA137011002800464B98472800464B6D
:100300009847464B2079002198473B681C209B0763
:100310007AD401233D6817381D4075D13B4B3068B6
:1003200098473F493F4B01909847019B35769A008B
:100330003D4B7576D650B31D7583B583DD77142399
:1003400035623B603768314B38009847802302AAFA
:10035000137155711300012201906069DD719A716A
:10036000A569002803D10100304B3800984702AB43
:100370001871022302AA000C5371C0B203A92C4BBE
:100380009847002D04D101213800284B98470500DB
:10039000022202AB280C5A711D71C0B2244B03A972
:1003A0009847A389F380E3893381227C8023002A44
:1003B00006D102251F4B9B781D406B1E9D41EB0112
:1003C000A5681D43237F002B02D08023DB051D433E
:1003D000226A3B68019813431D4380230D305B0064
:1003E0003D60C0B27B60144B9847FA212368C90076
:1003F00059434B1E1818114B9847431F4020FF2BA1
:1004000002D800209BB27B8105B0F0BD3D08000002
:10041000000400408D110000051100009D06000041
:10042000310500007108000068000020E1060000AE
:100430006112000000200041A911000041140000D9
:1004400010B5828B03000520002A05D101329A7273
:10045000DA721800014B984710BDC04665010000D4
:1004600010B5828B03000520002A05D101329A7253
:10047000DA721800014B984710BDC04635020000E3
:100480000268138A1BB2002BFBDB7047F8B5468B62
:10049000838B0400F61A838B0568013B9BB2838330
:1004A000838BB6B2124F002B1ED1C37A002B04D01F
:1004B00080236A68DB0213436B60A37A2000002B61
:1004C0000DD0B847C0236A689B0213436B602000BD
:1004D000B847236A9E192B7EDBB23370F8BDB8474C
:1004E00080236A685B02F0E76B68024A1340EDE71D
:1004F00081040000FFFFFBFF70B506680400338A2B
:100500005B0703D51E230634E37770BD458B838BD1
:10051000ED1A838BADB2013B9BB28383034B9847AB
:10052000236A5D192B78DBB23376EEE78104000095
:10053000F8B5564B8000C458637E277E25681F405F
:10054000638BA61D002B2DD1A38B002B2AD001235A
:10055000AA7B1A4205D0AB732B8A9B0701D5412396
:10056000F3772B8A5B070ED51823F3770023A38339
:10057000A37A002B07D0464B20009847C0236A6817
:100580009B0213436B60A38B9BB26383F37F052BAA
:100590002AD1631DDB7F2000002B00D06DE03D4B96
:1005A000984721E0638B002B5AD0A38B002B57D1A7
:1005B000F37F052B54D1631DDB7FDBB2002B4FD1C2
:1005C00003222A736383F377A37A002B45D0304B41
:1005D00020009847C0236A689B0213436B60FB07A7
:1005E00002D5E36820009847638B002B16D0A38BBD
:1005F0009BB2002B12D1F27F052A0FD1621DD17F51
:1006000001290BD1023129736383F377BB0736D5F8
:10061000D37F012B33D1236920009847F37F052B2B
:100620001AD0F37F002B17D003232B73002363838F
:10063000A383F37F412B0AD0A37A002B07D0144B5E
:1006400020009847E0236A68DB0213436B607B0756
:1006500002D5636920009847F8BD0123AB73BEE75C
:10066000638B002BC0D0A38B002BBDD02B8A9B06A5
:1006700000D58EE74123F377B6E7074B90E7FB07FA
:10068000CCD5D37F002BC9D1E368C5E76800002033
:1006900081040000F90400008D04000037B50D4C02
:1006A00005002378002B01D000290CD001A90C20D3
:1006B000094B0D7098470C20084B984701230020E8
:1006C000657023703EBD63780800AB42FAD01D20F0
:1006D000F8E7C046280000208D1100000511000039
:1006E000394A030000B50800934233D007D8374A8F
:1006F000934214D0364A93421FD0002317E0354A64
:1007000093423AD0344A934244D0344A9342F4D18B
:10071000002303290BD800F089FE502A2C2E002339
:10072000032904D800F082FE430205072C4B180071
:1007300000BD2C4BFBE72C4BF9E700230329F6D82F
:1007400000F074FE37020406284BF0E7284BEEE772
:10075000284BECE700230329E9D800F067FE2C02C0
:100760000406254BE3E7254BE1E7254BDFE7254B67
:10077000DDE7254BDBE7254BD9E700230329D6D856
:1007800000F054FE1D020406214BD0E7214BCEE7BA
:10079000214BCCE700230329C9D800F047FE120201
:1007A00004061E4BC3E71E4BC1E71E4BBFE71E4BA3
:1007B000BDE70323BBE71D4BB9E71D4BB7E71D4B57
:1007C000B5E71D4BB3E7C0460010004200080042E9
:1007D000000C004200180042001C004200140042BD
:1007E00003000500030006000300070003000100EA
:1007F00003001E0003001F000300090003000A009D
:1008000003000B000300110003001200030013009B
:1008100003000D0003000E0003000F00030017008B
:10082000030018000300190003000400030008007F
:100830000300100003000C000300160070B586B022
:100840006946094B6A4670CB70C170CB70C10023FA
:1008500099005158814202D1D8B206B070BD01331F
:10086000062BF5D10020F8E7A01500007047000026
:10087000F0B5094C094A2378002B09D11E00084F16
:10088000084DD750EE500433182BFAD1173B237084
:1008900080001150F0BDC0462A0000202C0000202E
:1008A0006D0800006800002007B507236A46137032
:1008B00001335370013393700133D37001331371DB
:1008C00001335371024B98476B4618560EBDC04614
:1008D0003D08000010B5024B00201B68984710BD72
:1008E0002C00002010B5024B01205B68984710BD1A
:1008F0002C00002010B5024B02209B68984710BDC9
:100900002C00002010B5024B0320DB68984710BD77
:100910002C00002010B5024B04201B69984710BD25
:100920002C00002010B5024B05205B69984710BDD4
:100930002C000020642380211B4A70B51360002323
:100940008903916001211371137413771362D733F4
:100950009384164B164DD381164B49425361164B67
:100960009181936115492800154B98472C68238A7B
:100970001BB2002BFBDB0223226813432360286891
:10098000104B98471F2318401E3B83400E4A1360AC
:1009900000231022E888218A114203D101338342C7
:1009A000F9D3228270BDC046C80000201027000085
:1009B000A00000200300080003000900001000420E
:1009C000C9020000A908000000E100E0B0B56C46D3
:1009D000D31DDB08DB00E31A00AF9D4600236D4604
:1009E00092B29CB2A2420FD80E4C0F4B62800022F2
:1009F000208065601A725A7221000C480C4B98478F
:100A0000002805D1BD46B0BDCC5CEC540133E8E70D
:100A1000084A1388591C11800A2BEDD1012040424D
:100A2000F0E7C046800000208C000020A0000020DD
:100A30006104000044000020F7B51E006B46154C11
:100A4000D97107336360012363800023170020807E
:100A500023726372104D21002800104B9847002824
:100A60000ED167606680210028000D4B9847002852
:100A70000ED00C4A1388591C11800A2BF3D105E0C3
:100A8000084A1388591C11800A2BE3D101204042E7
:100A9000FEBDC0468C000020A000002061040000C4
:100AA000410400004400002070B5094B0020984725
:100AB000FA21084C89000500A047074B0749186038
:100AC0002800A0470522064B1860064B1A6070BD2F
:100AD0007D100000411400000000002040420F0083
:100AE0000400002010E000E0014B5878C009704776
:100AF00000180040022310B5044A11780B4313700C
:100B0000034B98470028FBD110BDC0460018004099
:100B1000E90A0000402307B5104A032091690B43FE
:100B20009361002301A90B700D4B98470D4B0320D7
:100B3000984701230C4A11780B4313700B4B9847CD
:100B40000028FBD102000A4B1A5004304028FBD188
:100B50001022084B1A60084B984707BD000400405C
:100B60008D1100000511000000180040E90A000086
:100B7000F000002000E100E0F50A0000002301225F
:100B8000036043608372023302724272C372704721
:100B9000F7B50C000026237901A94E70CE700B70BA
:100BA000237A05008B702078134B984733001F2D54
:100BB00000D8124B0721A27A29408900E67A002A40
:100BC00001D0082216430F278E408F403100EA08DB
:100BD00092009A189069B84301439161617A0122A9
:100BE000002904D0AA4059690A435A61F7BDAA40B6
:100BF000596991435961F9E76112000000180040FA
:100C000007B5802201AB1A700A785A704A789A7038
:100C10008A781900DA70014B984707BD611200000D
:100C200010B51723002A06D1064B8900CC58002C9A
:100C300003D1C8502300180010BD13008442FAD01D
:100C40001D23F8E7F00000201723002906D11F28F4
:100C500006D8163B8340034AD3600B001800704748
:100C6000C960FFDE00180040002370B501250B4C61
:100C7000237023780F2B00D970BD29009940084AB2
:100C80001069084206D01161064A9B009B58002B50
:100C900000D09847237801332370EAE73001002021
:100CA00000180040F0000020012307B5002201A930
:100CB0004B700B700E20044B8A7098478022034BB8
:100CC000D2019A6107BDC046010C000000440041FA
:100CD000002307B5012201A90B708B700F20024B76
:100CE0004A70984707BDC046010C00000E4B10B576
:100CF000002098470D4B013898420DD8C0210C4A6E
:100D0000090650600B48036A1B021B0A0B4303626F
:100D10000023936007331360074B9847074B9847AE
:100D2000074B984710BDC0467D100000FFFFFF0035
:100D300010E000E000ED00E0A90A0000A90C0000AE
:100D4000D10C0000094B196800290BD1EFF310807A
:100D5000074A002805D172B6BFF35F8F05490870B6
:100D6000012111701A6801321A6070474800002092
:100D70004C00002008000020084B1A68013A1A6055
:100D80001B68002B09D1064B1B78002B05D00122D4
:100D9000044B1A70BFF35F8F62B6704748000020A3
:100DA0004C0000200800002010B5072805D800F0EE
:100DB0003DFB0604042727100913002010BD134B28
:100DC000D868FBE7124B13481B6A9B059B0FD84062
:100DD000F4E70E4B1869F1E70C4C002023689B07E1
:100DE000ECD510230A49CA681A42FCD023685B0775
:100DF00009D5094B00209847A3689BB25843DDE70B
:100E000080200002DAE70548D8E7C04650000020FD
:100E10000008004000127A00A9110000006CDC02FA
:100E200070B584780278457801204026054020403E
:100E300080240849AD010B6AC001B3432B43A3438F
:100E400003430320024004481202034013430B6291
:100E500070BDC04600080040FFFCFFFF00B507283A
:100E600005D800F0E3FA1304040B0D19061F172030
:100E700000BD0223174A116A0B4313620020F7E7F3
:100E80000223144A91690B439361F7E70223114A45
:100E9000118A0B431382F1E702230E4A918A0B4316
:100EA0009382EBE702230C4A11680B431360802303
:100EB00011689943074B89B299841021D868084278
:100EC000FCD09168D96251689962126892B29A8492
:100ED000D4E7C04600080040500000207FB5C22281
:100EE0001E21194BD2009A60184A0024536801ADA4
:100EF0008B43536001232B70E0B22900144B013463
:100F000098471C2CF8D100246B4601265C709E701B
:100F10001C7068460F4B98470F4B062098470F4BA5
:100F200098470F4B29001C725C729C72DC7206237E
:100F300020002B700B4B6E606C702C726C7298479B
:100F40002000094B98477FBD000800400040004149
:100F50008D110000210E00005D0E0000790F0000D1
:100F600000040040990F00003D100000014B58782C
:100F7000C0097047000C00400823054A91690B43E3
:100F800093610123034A137011781942FCD1704711
:100F900000040040000C0040F8B50C784B782402A7
:100FA000060005000443002B02D08023DB021C4313
:100FB0004B7A002B02D080231B031C434B68012B70
:100FC00012D95D1E1D400222002D06D01D02802375
:100FD00035439B0207E0013552009A42FBD3802340
:100FE0002D0235435B031C430B7A002B02D0802378
:100FF0009B031C430C4FB8470028FBD10B4B984771
:101000000B4B1E70B8470028FCD10A4B9D601D0099
:10101000B8470028FCD180226B68520213401C4361
:101020006C60054B9847F8BD6D0F0000450D000042
:10103000080C0040000C0040790D000070B5050060
:10104000094CA0470028FBD1084B9847084B1D705E
:10105000A0470028FCD18023064A5B0251680B435D
:101060005360054B984770BD6D0F0000450D0000A3
:10107000040C0040000C0040790D0000F7B507009B
:10108000184EB0470028FBD1174B9847174B1F70DD
:101090000193B0470028FCD1154D164B6868C00479
:1010A000C00E98470400019B1F706B68DB02DB0FCA
:1010B0000193114B1F70B0470028FCD1AD680F4B56
:1010C0009847019B2D022D0C002B08D1012D04D92E
:1010D000200029000A4B984704002000FEBD01357E
:1010E000EC40FAE76D0F0000450D0000040C0040D5
:1010F000000C0040A90D0000080C0040790D000014
:101100004114000010B50400064B9847064B074AEF
:101110001C7080235188DB010B435380044B98479C
:1011200010BDC046450D0000020C0040000C004000
:10113000790D000010B504000E4B98470E4B0F4A76
:101140001C700F4B0F4C588859880005114059806E
:101150005988000F2140598011008022D2015C88FB
:101160001442FCD15A8800020A4002435A80064BBE
:10117000984710BD450D0000020C0040FFF0FFFF36
:10118000000C0040FFBFFFFF790D000010B50C7888
:10119000034B240204439847024BA4B25C8010BD69
:1011A00035110000000C004010B50400064B9847B4
:1011B000064B1C70064B5C88064B2405240F984791
:1011C0002000054B984710BD450D0000020C004063
:1011D000000C0040790D00007D100000D37830B580
:1011E000002B35D11478802C03D0802324065B0299
:1011F000234302255478AC4306D19478002C24D1A3
:101200008024A402234341605478013C012C01D87E
:10121000124C2340A0248DB2E4052C431C4384626D
:10122000D0240D0C24062C431C438462D478002C5B
:101230000AD15B0303D59378012B0CD181615378DC
:10124000013B012B00D8816030BDC024E402D9E706
:1012500041600023DEE74161F1E7C046FFFFFBFF8D
:1012600010B503000A004409C1090020814202D1DF
:101270000449E00140181F210B401E399940024BE0
:10128000984710BD00440041DD1100007047000088
:1012900010B5054B9847054B9847054B9847054BAC
:1012A0009847054B984710BDDD0E0000ED0C00007F
:1012B0008D120000150B00008D120000FEE70000EB
:1012C0001148124970B5884204D00023104CCA1846
:1012D000A24213D300210F4B0F4A934212D3FF2196
:1012E0000E4B0F4A8B43936080230E4A51680B4389
:1012F00053600D4B98470D4B9847FEE7C558043394
:101300001560E4E702C3E8E7D815000000000020FC
:101310000C0000200C0000203C0100200000000018
:1013200000ED00E0004000415915000019140000D4
:10133000802210B50A4BD201196A09040ED59A61B0
:10134000084C052220780849084B9847084B20781C
:101350001978084A0523084CA04710BD5A61EFE7E9
:10136000004400410900002031010020CD090000A7
:101370006400002036010020390A00001FB501ACCE
:101380002000074B984700230F206360013323722E
:101390000233E3722100034B019098471FBDC04602
:1013A0007D0B0000910B000010B500220F21044BB3
:1013B0000448984700210F20034B984710BDC046B2
:1013C000210C000031130000490C000070470000A0
:1013D00010B50C4B98470C4B984701220B4B1A70D9
:1013E000BFF35F8F62B60A4B9847A522094B1A706C
:1013F00010325A7010329A701032DA7010321A713C
:1014000010BDC0467D130000A91300000800002095
:101410003509000031010020024B10B59847024BFE
:101420009847FEE791120000D113000002B4714604
:1014300049084900095C49008E4402BC7047C04617
:10144000002243088B4274D303098B425FD3030A03
:101450008B4244D3030B8B4228D3030C8B420DD316
:10146000FF22090212BA030C8B4202D312120902A4
:1014700065D0030B8B4219D300E0090AC30B8B42E2
:1014800001D3CB03C01A5241830B8B4201D38B0390
:10149000C01A5241430B8B4201D34B03C01A524135
:1014A000030B8B4201D30B03C01A5241C30A8B4278
:1014B00001D3CB02C01A5241830A8B4201D38B0263
:1014C000C01A5241430A8B4201D34B02C01A524107
:1014D000030A8B4201D30B02C01A5241CDD2C30979
:1014E0008B4201D3CB01C01A524183098B4201D3F5
:1014F0008B01C01A524143098B4201D34B01C01AE0
:10150000524103098B4201D30B01C01A5241C30857
:101510008B4201D3CB00C01A524183088B4201D3C6
:101520008B00C01A524143088B4201D34B00C01AB2
:101530005241411A00D20146524110467047FFE71E
:1015400001B5002000F006F802BDC0460029F7D022
:1015500076E770477047C04670B500260C4D0D4CBD
:10156000641BA410A64209D1002600F025F80A4DFC
:101570000A4C641BA410A64205D170BDB300EB5801
:1015800098470136EEE7B300EB5898470136F2E78B
:10159000C4150000C4150000C4150000C8150000E3
:1015A00000080042000C00420010004200140042FB
:1015B00000180042001C0042F8B5C046F8BC08BC48
:1015C0009E467047CD000000F8B5C046F8BC08BC88
:0815D0009E467047A5000000D3
:0C15D800401F000008000000011A000085
:04000003000012C126
:00000001FF
